{
  "contractName": "ProductVerifier",
  "abi": [
    {
      "inputs": [],
      "stateMutability": "nonpayable",
      "type": "constructor"
    },
    {
      "anonymous": false,
      "inputs": [
        {
          "indexed": true,
          "internalType": "string",
          "name": "productId",
          "type": "string"
        },
        {
          "indexed": true,
          "internalType": "address",
          "name": "manufacturer",
          "type": "address"
        }
      ],
      "name": "ProductCreated",
      "type": "event"
    },
    {
      "anonymous": false,
      "inputs": [
        {
          "indexed": true,
          "internalType": "string",
          "name": "productId",
          "type": "string"
        },
        {
          "indexed": true,
          "internalType": "address",
          "name": "retailer",
          "type": "address"
        },
        {
          "indexed": false,
          "internalType": "uint256",
          "name": "saleDate",
          "type": "uint256"
        }
      ],
      "name": "ProductSold",
      "type": "event"
    },
    {
      "anonymous": false,
      "inputs": [
        {
          "indexed": true,
          "internalType": "string",
          "name": "productId",
          "type": "string"
        },
        {
          "indexed": false,
          "internalType": "enum ProductVerifier.ProductStatus",
          "name": "newStatus",
          "type": "uint8"
        }
      ],
      "name": "ProductStatusChanged",
      "type": "event"
    },
    {
      "inputs": [
        {
          "internalType": "address",
          "name": "",
          "type": "address"
        }
      ],
      "name": "authorizedManufacturers",
      "outputs": [
        {
          "internalType": "bool",
          "name": "",
          "type": "bool"
        }
      ],
      "stateMutability": "view",
      "type": "function"
    },
    {
      "inputs": [
        {
          "internalType": "address",
          "name": "",
          "type": "address"
        }
      ],
      "name": "authorizedRetailers",
      "outputs": [
        {
          "internalType": "bool",
          "name": "",
          "type": "bool"
        }
      ],
      "stateMutability": "view",
      "type": "function"
    },
    {
      "inputs": [],
      "name": "owner",
      "outputs": [
        {
          "internalType": "address",
          "name": "",
          "type": "address"
        }
      ],
      "stateMutability": "view",
      "type": "function"
    },
    {
      "inputs": [
        {
          "internalType": "string",
          "name": "",
          "type": "string"
        }
      ],
      "name": "products",
      "outputs": [
        {
          "internalType": "string",
          "name": "productId",
          "type": "string"
        },
        {
          "internalType": "address",
          "name": "manufacturer",
          "type": "address"
        },
        {
          "internalType": "uint256",
          "name": "manufactureDate",
          "type": "uint256"
        },
        {
          "internalType": "string",
          "name": "batchNumber",
          "type": "string"
        },
        {
          "internalType": "string",
          "name": "category",
          "type": "string"
        },
        {
          "internalType": "bytes32",
          "name": "productHash",
          "type": "bytes32"
        },
        {
          "internalType": "enum ProductVerifier.ProductStatus",
          "name": "status",
          "type": "uint8"
        },
        {
          "internalType": "bool",
          "name": "exists",
          "type": "bool"
        }
      ],
      "stateMutability": "view",
      "type": "function"
    },
    {
      "inputs": [
        {
          "internalType": "string",
          "name": "",
          "type": "string"
        }
      ],
      "name": "sales",
      "outputs": [
        {
          "internalType": "string",
          "name": "productId",
          "type": "string"
        },
        {
          "internalType": "address",
          "name": "retailer",
          "type": "address"
        },
        {
          "internalType": "address",
          "name": "buyer",
          "type": "address"
        },
        {
          "internalType": "uint256",
          "name": "saleDate",
          "type": "uint256"
        },
        {
          "internalType": "string",
          "name": "location",
          "type": "string"
        },
        {
          "internalType": "bool",
          "name": "exists",
          "type": "bool"
        }
      ],
      "stateMutability": "view",
      "type": "function"
    },
    {
      "inputs": [
        {
          "internalType": "address",
          "name": "_manufacturer",
          "type": "address"
        }
      ],
      "name": "authorizeManufacturer",
      "outputs": [],
      "stateMutability": "nonpayable",
      "type": "function"
    },
    {
      "inputs": [
        {
          "internalType": "address",
          "name": "_retailer",
          "type": "address"
        }
      ],
      "name": "authorizeRetailer",
      "outputs": [],
      "stateMutability": "nonpayable",
      "type": "function"
    },
    {
      "inputs": [
        {
          "internalType": "string",
          "name": "_productId",
          "type": "string"
        },
        {
          "internalType": "string",
          "name": "_batchNumber",
          "type": "string"
        },
        {
          "internalType": "string",
          "name": "_category",
          "type": "string"
        },
        {
          "internalType": "string",
          "name": "_productDetails",
          "type": "string"
        }
      ],
      "name": "createProduct",
      "outputs": [],
      "stateMutability": "nonpayable",
      "type": "function"
    },
    {
      "inputs": [
        {
          "internalType": "string",
          "name": "_productId",
          "type": "string"
        },
        {
          "internalType": "address",
          "name": "_buyer",
          "type": "address"
        },
        {
          "internalType": "string",
          "name": "_storeLocation",
          "type": "string"
        }
      ],
      "name": "markAsSold",
      "outputs": [],
      "stateMutability": "nonpayable",
      "type": "function"
    },
    {
      "inputs": [
        {
          "internalType": "string",
          "name": "_productId",
          "type": "string"
        }
      ],
      "name": "quickVerify",
      "outputs": [
        {
          "internalType": "bool",
          "name": "exists",
          "type": "bool"
        },
        {
          "internalType": "enum ProductVerifier.ProductStatus",
          "name": "status",
          "type": "uint8"
        },
        {
          "internalType": "address",
          "name": "manufacturer",
          "type": "address"
        },
        {
          "internalType": "string",
          "name": "batchNumber",
          "type": "string"
        }
      ],
      "stateMutability": "view",
      "type": "function"
    },
    {
      "inputs": [
        {
          "internalType": "string",
          "name": "_productId",
          "type": "string"
        }
      ],
      "name": "getProductDetails",
      "outputs": [
        {
          "internalType": "bool",
          "name": "exists",
          "type": "bool"
        },
        {
          "internalType": "address",
          "name": "manufacturer",
          "type": "address"
        },
        {
          "internalType": "uint256",
          "name": "manufactureDate",
          "type": "uint256"
        },
        {
          "internalType": "string",
          "name": "batchNumber",
          "type": "string"
        },
        {
          "internalType": "string",
          "name": "category",
          "type": "string"
        },
        {
          "internalType": "enum ProductVerifier.ProductStatus",
          "name": "status",
          "type": "uint8"
        }
      ],
      "stateMutability": "view",
      "type": "function"
    },
    {
      "inputs": [
        {
          "internalType": "string",
          "name": "_productId",
          "type": "string"
        }
      ],
      "name": "getSaleInfo",
      "outputs": [
        {
          "internalType": "bool",
          "name": "wasSold",
          "type": "bool"
        },
        {
          "internalType": "address",
          "name": "retailer",
          "type": "address"
        },
        {
          "internalType": "uint256",
          "name": "saleDate",
          "type": "uint256"
        },
        {
          "internalType": "string",
          "name": "location",
          "type": "string"
        }
      ],
      "stateMutability": "view",
      "type": "function"
    }
  ],
  "bytecode": "0x608060405234801561001057600080fd5b5033600460006101000a81548173ffffffffffffffffffffffffffffffffffffffff021916908373ffffffffffffffffffffffffffffffffffffffff1602179055506001600260003373ffffffffffffffffffffffffffffffffffffffff1673ffffffffffffffffffffffffffffffffffffffff16815260200190815260200160002060006101000a81548160ff021916908315150217905550612894806100b96000396000f3fe608060405234801561001057600080fd5b50600436106100b45760003560e01c806387dc57301161007157806387dc5730146101c05780638ca5ded1146101f35780638da5cb5b1461020f5780639369d8801461022d578063eb51e3cd1461025d578063fbb37cf214610279576100b4565b80630186a423146100b9578063089e1b39146100f0578063198c59b01461010c57806324b042451461014157806325399833146101715780633f9e6ca21461018d575b600080fd5b6100d360048036038101906100ce9190611bae565b6102ae565b6040516100e7989796959493929190611d7b565b60405180910390f35b61010a60048036038101906101059190611e3a565b6104de565b005b61012660048036038101906101219190611bae565b610638565b60405161013896959493929190611e67565b60405180910390f35b61015b60048036038101906101569190611e3a565b610919565b6040516101689190611ed6565b60405180910390f35b61018b60048036038101906101869190611ef1565b610939565b005b6101a760048036038101906101a29190611bae565b610da8565b6040516101b79493929190611f7c565b60405180910390f35b6101da60048036038101906101d59190611bae565b611076565b6040516101ea9493929190611fc8565b60405180910390f35b61020d60048036038101906102089190611e3a565b6112c3565b005b61021761141d565b6040516102249190612014565b60405180910390f35b61024760048036038101906102429190611e3a565b611443565b6040516102549190611ed6565b60405180910390f35b6102776004803603810190610272919061202f565b611463565b005b610293600480360381019061028e9190611bae565b611859565b6040516102a596959493929190612106565b60405180910390f35b6000818051602081018201805184825260208301602085012081835280955050505050506000915090508060000180546102e7906121a4565b80601f0160208091040260200160405190810160405280929190818152602001828054610313906121a4565b80156103605780601f1061033557610100808354040283529160200191610360565b820191906000526020600020905b81548152906001019060200180831161034357829003601f168201915b5050505050908060010160009054906101000a900473ffffffffffffffffffffffffffffffffffffffff16908060020154908060030180546103a1906121a4565b80601f01602080910402602001604051908101604052809291908181526020018280546103cd906121a4565b801561041a5780601f106103ef5761010080835404028352916020019161041a565b820191906000526020600020905b8154815290600101906020018083116103fd57829003601f168201915b50505050509080600401805461042f906121a4565b80601f016020809104026020016040519081016040528092919081815260200182805461045b906121a4565b80156104a85780601f1061047d576101008083540402835291602001916104a8565b820191906000526020600020905b81548152906001019060200180831161048b57829003601f168201915b5050505050908060050154908060060160009054906101000a900460ff16908060060160019054906101000a900460ff16905088565b600460009054906101000a900473ffffffffffffffffffffffffffffffffffffffff1673ffffffffffffffffffffffffffffffffffffffff163373ffffffffffffffffffffffffffffffffffffffff161461056e576040517f08c379a000000000000000000000000000000000000000000000000000000000815260040161056590612221565b60405180910390fd5b600073ffffffffffffffffffffffffffffffffffffffff168173ffffffffffffffffffffffffffffffffffffffff16036105dd576040517f08c379a00000000000000000000000000000000000000000000000000000000081526004016105d49061228d565b60405180910390fd5b6001600260008373ffffffffffffffffffffffffffffffffffffffff1673ffffffffffffffffffffffffffffffffffffffff16815260200190815260200160002060006101000a81548160ff02191690831515021790555050565b600080600060608060008060008860405161065391906122e9565b90815260200160405180910390206040518061010001604052908160008201805461067d906121a4565b80601f01602080910402602001604051908101604052809291908181526020018280546106a9906121a4565b80156106f65780601f106106cb576101008083540402835291602001916106f6565b820191906000526020600020905b8154815290600101906020018083116106d957829003601f168201915b505050505081526020016001820160009054906101000a900473ffffffffffffffffffffffffffffffffffffffff1673ffffffffffffffffffffffffffffffffffffffff1673ffffffffffffffffffffffffffffffffffffffff1681526020016002820154815260200160038201805461076f906121a4565b80601f016020809104026020016040519081016040528092919081815260200182805461079b906121a4565b80156107e85780601f106107bd576101008083540402835291602001916107e8565b820191906000526020600020905b8154815290600101906020018083116107cb57829003601f168201915b50505050508152602001600482018054610801906121a4565b80601f016020809104026020016040519081016040528092919081815260200182805461082d906121a4565b801561087a5780601f1061084f5761010080835404028352916020019161087a565b820191906000526020600020905b81548152906001019060200180831161085d57829003601f168201915b50505050508152602001600582015481526020016006820160009054906101000a900460ff1660018111156108b2576108b1611ce9565b5b60018111156108c4576108c3611ce9565b5b81526020016006820160019054906101000a900460ff16151515158152505090508060e0015181602001518260400151836060015184608001518560c001519650965096509650965096505091939550919395565b60026020528060005260406000206000915054906101000a900460ff1681565b600360003373ffffffffffffffffffffffffffffffffffffffff1673ffffffffffffffffffffffffffffffffffffffff16815260200190815260200160002060009054906101000a900460ff166109c5576040517f08c379a00000000000000000000000000000000000000000000000000000000081526004016109bc9061234c565b60405180910390fd5b610a04836040518060400160405280601281526020017f70726f6475637449642072657175697265640000000000000000000000000000815250611a08565b610a43816040518060400160405280601681526020017f73746f72654c6f636174696f6e20726571756972656400000000000000000000815250611a08565b600083604051610a5391906122e9565b908152602001604051809103902060060160019054906101000a900460ff16610ab1576040517f08c379a0000000000000000000000000000000000000000000000000000000008152600401610aa8906123b8565b60405180910390fd5b60006001811115610ac557610ac4611ce9565b5b600084604051610ad591906122e9565b908152602001604051809103902060060160009054906101000a900460ff166001811115610b0657610b05611ce9565b5b14610b46576040517f08c379a0000000000000000000000000000000000000000000000000000000008152600401610b3d90612424565b60405180910390fd5b6001600084604051610b5891906122e9565b908152602001604051809103902060060160006101000a81548160ff02191690836001811115610b8b57610b8a611ce9565b5b02179055506040518060c001604052808481526020013373ffffffffffffffffffffffffffffffffffffffff1681526020018373ffffffffffffffffffffffffffffffffffffffff16815260200142815260200182815260200160011515815250600184604051610bfc91906122e9565b90815260200160405180910390206000820151816000019081610c1f91906125f0565b5060208201518160010160006101000a81548173ffffffffffffffffffffffffffffffffffffffff021916908373ffffffffffffffffffffffffffffffffffffffff16021790555060408201518160020160006101000a81548173ffffffffffffffffffffffffffffffffffffffff021916908373ffffffffffffffffffffffffffffffffffffffff160217905550606082015181600301556080820151816004019081610ccd91906125f0565b5060a08201518160050160006101000a81548160ff0219169083151502179055509050503373ffffffffffffffffffffffffffffffffffffffff1683604051610d1691906122e9565b60405180910390207fd0597de7b4841220d83e82517ef6d92df0c5edab071069f65a89c2c66ca407aa42604051610d4d91906126c2565b60405180910390a382604051610d6391906122e9565b60405180910390207f066d055e9919609f2819aff5e40a4ba62c69f23fdb965601ae4527d3ff742a606001604051610d9b91906126dd565b60405180910390a2505050565b6000806000606060008086604051610dc091906122e9565b908152602001604051809103902060405180610100016040529081600082018054610dea906121a4565b80601f0160208091040260200160405190810160405280929190818152602001828054610e16906121a4565b8015610e635780601f10610e3857610100808354040283529160200191610e63565b820191906000526020600020905b815481529060010190602001808311610e4657829003601f168201915b505050505081526020016001820160009054906101000a900473ffffffffffffffffffffffffffffffffffffffff1673ffffffffffffffffffffffffffffffffffffffff1673ffffffffffffffffffffffffffffffffffffffff16815260200160028201548152602001600382018054610edc906121a4565b80601f0160208091040260200160405190810160405280929190818152602001828054610f08906121a4565b8015610f555780601f10610f2a57610100808354040283529160200191610f55565b820191906000526020600020905b815481529060010190602001808311610f3857829003601f168201915b50505050508152602001600482018054610f6e906121a4565b80601f0160208091040260200160405190810160405280929190818152602001828054610f9a906121a4565b8015610fe75780601f10610fbc57610100808354040283529160200191610fe7565b820191906000526020600020905b815481529060010190602001808311610fca57829003601f168201915b50505050508152602001600582015481526020016006820160009054906101000a900460ff16600181111561101f5761101e611ce9565b5b600181111561103157611030611ce9565b5b81526020016006820160019054906101000a900460ff16151515158152505090508060e001518160c00151826020015183606001519450945094509450509193509193565b60008060006060600060018660405161108f91906122e9565b90815260200160405180910390206040518060c00160405290816000820180546110b8906121a4565b80601f01602080910402602001604051908101604052809291908181526020018280546110e4906121a4565b80156111315780601f1061110657610100808354040283529160200191611131565b820191906000526020600020905b81548152906001019060200180831161111457829003601f168201915b505050505081526020016001820160009054906101000a900473ffffffffffffffffffffffffffffffffffffffff1673ffffffffffffffffffffffffffffffffffffffff1673ffffffffffffffffffffffffffffffffffffffff1681526020016002820160009054906101000a900473ffffffffffffffffffffffffffffffffffffffff1673ffffffffffffffffffffffffffffffffffffffff1673ffffffffffffffffffffffffffffffffffffffff16815260200160038201548152602001600482018054611200906121a4565b80601f016020809104026020016040519081016040528092919081815260200182805461122c906121a4565b80156112795780601f1061124e57610100808354040283529160200191611279565b820191906000526020600020905b81548152906001019060200180831161125c57829003601f168201915b505050505081526020016005820160009054906101000a900460ff16151515158152505090508060a001518160200151826060015183608001519450945094509450509193509193565b600460009054906101000a900473ffffffffffffffffffffffffffffffffffffffff1673ffffffffffffffffffffffffffffffffffffffff163373ffffffffffffffffffffffffffffffffffffffff1614611353576040517f08c379a000000000000000000000000000000000000000000000000000000000815260040161134a90612221565b60405180910390fd5b600073ffffffffffffffffffffffffffffffffffffffff168173ffffffffffffffffffffffffffffffffffffffff16036113c2576040517f08c379a00000000000000000000000000000000000000000000000000000000081526004016113b990612744565b60405180910390fd5b6001600360008373ffffffffffffffffffffffffffffffffffffffff1673ffffffffffffffffffffffffffffffffffffffff16815260200190815260200160002060006101000a81548160ff02191690831515021790555050565b600460009054906101000a900473ffffffffffffffffffffffffffffffffffffffff1681565b60036020528060005260406000206000915054906101000a900460ff1681565b600260003373ffffffffffffffffffffffffffffffffffffffff1673ffffffffffffffffffffffffffffffffffffffff16815260200190815260200160002060009054906101000a900460ff166114ef576040517f08c379a00000000000000000000000000000000000000000000000000000000081526004016114e6906127b0565b60405180910390fd5b61152e846040518060400160405280601281526020017f70726f6475637449642072657175697265640000000000000000000000000000815250611a08565b61156d836040518060400160405280601481526020017f62617463684e756d626572207265717569726564000000000000000000000000815250611a08565b6115ac826040518060400160405280601181526020017f63617465676f7279207265717569726564000000000000000000000000000000815250611a08565b6115eb816040518060400160405280601781526020017f70726f6475637444657461696c73207265717569726564000000000000000000815250611a08565b6000846040516115fb91906122e9565b908152602001604051809103902060060160019054906101000a900460ff161561165a576040517f08c379a00000000000000000000000000000000000000000000000000000000081526004016116519061281c565b60405180910390fd5b60008160405160200161166d91906122e9565b6040516020818303038152906040528051906020012090506040518061010001604052808681526020013373ffffffffffffffffffffffffffffffffffffffff168152602001428152602001858152602001848152602001828152602001600060018111156116df576116de611ce9565b5b8152602001600115158152506000866040516116fb91906122e9565b9081526020016040518091039020600082015181600001908161171e91906125f0565b5060208201518160010160006101000a81548173ffffffffffffffffffffffffffffffffffffffff021916908373ffffffffffffffffffffffffffffffffffffffff16021790555060408201518160020155606082015181600301908161178591906125f0565b50608082015181600401908161179b91906125f0565b5060a0820151816005015560c08201518160060160006101000a81548160ff021916908360018111156117d1576117d0611ce9565b5b021790555060e08201518160060160016101000a81548160ff0219169083151502179055509050503373ffffffffffffffffffffffffffffffffffffffff168560405161181e91906122e9565b60405180910390207f6276b46249f3ef9f8582903c6f0d43109febb82b3ec9f4dbd15662bb71ec9c7b60405160405180910390a35050505050565b600181805160208101820180518482526020830160208501208183528095505050505050600091509050806000018054611892906121a4565b80601f01602080910402602001604051908101604052809291908181526020018280546118be906121a4565b801561190b5780601f106118e05761010080835404028352916020019161190b565b820191906000526020600020905b8154815290600101906020018083116118ee57829003601f168201915b5050505050908060010160009054906101000a900473ffffffffffffffffffffffffffffffffffffffff16908060020160009054906101000a900473ffffffffffffffffffffffffffffffffffffffff1690806003015490806004018054611972906121a4565b80601f016020809104026020016040519081016040528092919081815260200182805461199e906121a4565b80156119eb5780601f106119c0576101008083540402835291602001916119eb565b820191906000526020600020905b8154815290600101906020018083116119ce57829003601f168201915b5050505050908060050160009054906101000a900460ff16905086565b60008251118190611a4f576040517f08c379a0000000000000000000000000000000000000000000000000000000008152600401611a46919061283c565b60405180910390fd5b505050565b6000604051905090565b600080fd5b600080fd5b600080fd5b600080fd5b6000601f19601f8301169050919050565b7f4e487b7100000000000000000000000000000000000000000000000000000000600052604160045260246000fd5b611abb82611a72565b810181811067ffffffffffffffff82111715611ada57611ad9611a83565b5b80604052505050565b6000611aed611a54565b9050611af98282611ab2565b919050565b600067ffffffffffffffff821115611b1957611b18611a83565b5b611b2282611a72565b9050602081019050919050565b82818337600083830152505050565b6000611b51611b4c84611afe565b611ae3565b905082815260208101848484011115611b6d57611b6c611a6d565b5b611b78848285611b2f565b509392505050565b600082601f830112611b9557611b94611a68565b5b8135611ba5848260208601611b3e565b91505092915050565b600060208284031215611bc457611bc3611a5e565b5b600082013567ffffffffffffffff811115611be257611be1611a63565b5b611bee84828501611b80565b91505092915050565b600081519050919050565b600082825260208201905092915050565b60005b83811015611c31578082015181840152602081019050611c16565b60008484015250505050565b6000611c4882611bf7565b611c528185611c02565b9350611c62818560208601611c13565b611c6b81611a72565b840191505092915050565b600073ffffffffffffffffffffffffffffffffffffffff82169050919050565b6000611ca182611c76565b9050919050565b611cb181611c96565b82525050565b6000819050919050565b611cca81611cb7565b82525050565b6000819050919050565b611ce381611cd0565b82525050565b7f4e487b7100000000000000000000000000000000000000000000000000000000600052602160045260246000fd5b60028110611d2957611d28611ce9565b5b50565b6000819050611d3a82611d18565b919050565b6000611d4a82611d2c565b9050919050565b611d5a81611d3f565b82525050565b60008115159050919050565b611d7581611d60565b82525050565b6000610100820190508181036000830152611d96818b611c3d565b9050611da5602083018a611ca8565b611db26040830189611cc1565b8181036060830152611dc48188611c3d565b90508181036080830152611dd88187611c3d565b9050611de760a0830186611cda565b611df460c0830185611d51565b611e0160e0830184611d6c565b9998505050505050505050565b611e1781611c96565b8114611e2257600080fd5b50565b600081359050611e3481611e0e565b92915050565b600060208284031215611e5057611e4f611a5e565b5b6000611e5e84828501611e25565b91505092915050565b600060c082019050611e7c6000830189611d6c565b611e896020830188611ca8565b611e966040830187611cc1565b8181036060830152611ea88186611c3d565b90508181036080830152611ebc8185611c3d565b9050611ecb60a0830184611d51565b979650505050505050565b6000602082019050611eeb6000830184611d6c565b92915050565b600080600060608486031215611f0a57611f09611a5e565b5b600084013567ffffffffffffffff811115611f2857611f27611a63565b5b611f3486828701611b80565b9350506020611f4586828701611e25565b925050604084013567ffffffffffffffff811115611f6657611f65611a63565b5b611f7286828701611b80565b9150509250925092565b6000608082019050611f916000830187611d6c565b611f9e6020830186611d51565b611fab6040830185611ca8565b8181036060830152611fbd8184611c3d565b905095945050505050565b6000608082019050611fdd6000830187611d6c565b611fea6020830186611ca8565b611ff76040830185611cc1565b81810360608301526120098184611c3d565b905095945050505050565b60006020820190506120296000830184611ca8565b92915050565b6000806000806080858703121561204957612048611a5e565b5b600085013567ffffffffffffffff81111561206757612066611a63565b5b61207387828801611b80565b945050602085013567ffffffffffffffff81111561209457612093611a63565b5b6120a087828801611b80565b935050604085013567ffffffffffffffff8111156120c1576120c0611a63565b5b6120cd87828801611b80565b925050606085013567ffffffffffffffff8111156120ee576120ed611a63565b5b6120fa87828801611b80565b91505092959194509250565b600060c08201905081810360008301526121208189611c3d565b905061212f6020830188611ca8565b61213c6040830187611ca8565b6121496060830186611cc1565b818103608083015261215b8185611c3d565b905061216a60a0830184611d6c565b979650505050505050565b7f4e487b7100000000000000000000000000000000000000000000000000000000600052602260045260246000fd5b600060028204905060018216806121bc57607f821691505b6020821081036121cf576121ce612175565b5b50919050565b7f4f6e6c79206f776e657200000000000000000000000000000000000000000000600082015250565b600061220b600a83611c02565b9150612216826121d5565b602082019050919050565b6000602082019050818103600083015261223a816121fe565b9050919050565b7f6d616e756661637475726572203d3d207a65726f000000000000000000000000600082015250565b6000612277601483611c02565b915061228282612241565b602082019050919050565b600060208201905081810360008301526122a68161226a565b9050919050565b600081905092915050565b60006122c382611bf7565b6122cd81856122ad565b93506122dd818560208601611c13565b80840191505092915050565b60006122f582846122b8565b915081905092915050565b7f4e6f7420617574686f72697a65642072657461696c6572000000000000000000600082015250565b6000612336601783611c02565b915061234182612300565b602082019050919050565b6000602082019050818103600083015261236581612329565b9050919050565b7f50726f6475637420646f6573206e6f7420657869737400000000000000000000600082015250565b60006123a2601683611c02565b91506123ad8261236c565b602082019050919050565b600060208201905081810360008301526123d181612395565b9050919050565b7f50726f6475637420616c726561647920736f6c64000000000000000000000000600082015250565b600061240e601483611c02565b9150612419826123d8565b602082019050919050565b6000602082019050818103600083015261243d81612401565b9050919050565b60008190508160005260206000209050919050565b60006020601f8301049050919050565b600082821b905092915050565b6000600883026124a67fffffffffffffffffffffffffffffffffffffffffffffffffffffffffffffffff82612469565b6124b08683612469565b95508019841693508086168417925050509392505050565b6000819050919050565b60006124ed6124e86124e384611cb7565b6124c8565b611cb7565b9050919050565b6000819050919050565b612507836124d2565b61251b612513826124f4565b848454612476565b825550505050565b600090565b612530612523565b61253b8184846124fe565b505050565b5b8181101561255f57612554600082612528565b600181019050612541565b5050565b601f8211156125a45761257581612444565b61257e84612459565b8101602085101561258d578190505b6125a161259985612459565b830182612540565b50505b505050565b600082821c905092915050565b60006125c7600019846008026125a9565b1980831691505092915050565b60006125e083836125b6565b9150826002028217905092915050565b6125f982611bf7565b67ffffffffffffffff81111561261257612611611a83565b5b61261c82546121a4565b612627828285612563565b600060209050601f83116001811461265a5760008415612648578287015190505b61265285826125d4565b8655506126ba565b601f19841661266886612444565b60005b828110156126905784890151825560018201915060208501945060208101905061266b565b868310156126ad57848901516126a9601f8916826125b6565b8355505b6001600288020188555050505b505050505050565b60006020820190506126d76000830184611cc1565b92915050565b60006020820190506126f26000830184611d51565b92915050565b7f72657461696c6572203d3d207a65726f00000000000000000000000000000000600082015250565b600061272e601083611c02565b9150612739826126f8565b602082019050919050565b6000602082019050818103600083015261275d81612721565b9050919050565b7f4e6f7420617574686f72697a6564206d616e7566616374757265720000000000600082015250565b600061279a601b83611c02565b91506127a582612764565b602082019050919050565b600060208201905081810360008301526127c98161278d565b9050919050565b7f50726f6475637420616c72656164792065786973747300000000000000000000600082015250565b6000612806601683611c02565b9150612811826127d0565b602082019050919050565b60006020820190508181036000830152612835816127f9565b9050919050565b600060208201905081810360008301526128568184611c3d565b90509291505056fea26469706673582212200a6859f40886d4f5e2eddd59f6e48b7dee94e8d73f13005a1c1d6664626f2a6c64736f6c63430008130033",
  "immutableReferences": {},
  "source": "// SPDX-License-Identifier: MIT\npragma solidity ^0.8.19;\n\n/// @title ProductVerifier\n/// @notice Simple product registration & verification for manufacturers and retailers\n/// @dev Stores product metadata and a single sale record per product. Uses simple access control maps.\ncontract ProductVerifier {\n    \n    /// @notice Product lifecycle status\n    enum ProductStatus { Available, Sold }\n    \n    /// @notice Product information stored on-chain\n    /// @dev `exists` is used to distinguish default struct values from real entries\n    struct Product {\n        string productId;       // External product identifier (e.g., SKU or serial)\n        address manufacturer;   // Address of the manufacturer who registered this product\n        uint256 manufactureDate;// Timestamp when the product was registered\n        string batchNumber;     // Batch number for traceability\n        string category;        // Product category or type\n        bytes32 productHash;    // Hash of product details (off-chain data fingerprint)\n        ProductStatus status;   // Current status (Available/Sold)\n        bool exists;            // Flag to indicate record presence\n    }\n    \n    /// @notice Record of a single sale for a product\n    struct SaleRecord {\n        string productId;       // Product identifier\n        address retailer;       // Retailer address that recorded the sale\n        address buyer;          // Optional: buyer's address\n        uint256 saleDate;       // Timestamp of the sale\n        string location;        // Store/location identifier\n        bool exists;            // Flag to indicate sale record presence\n    }\n    \n    // Storage mappings\n    mapping(string => Product) public products;       // productId => Product\n    mapping(string => SaleRecord) public sales;       // productId => SaleRecord (one sale per product)\n    mapping(address => bool) public authorizedManufacturers; // Addresses allowed to create products\n    mapping(address => bool) public authorizedRetailers;     // Addresses allowed to mark products sold\n    \n    address public owner; // Contract owner (deployer)\n    \n    // Events emitted for off-chain indexers or UIs\n    event ProductCreated(string indexed productId, address indexed manufacturer);\n    event ProductSold(string indexed productId, address indexed retailer, uint256 saleDate);\n    event ProductStatusChanged(string indexed productId, ProductStatus newStatus);\n    \n    /// @dev Restrict to contract owner\n    modifier onlyOwner() {\n        require(msg.sender == owner, \"Only owner\");\n        _;\n    }\n    \n    /// @dev Restrict to authorized manufacturers\n    modifier onlyManufacturer() {\n        require(authorizedManufacturers[msg.sender], \"Not authorized manufacturer\");\n        _;\n    }\n    \n    /// @dev Restrict to authorized retailers\n    modifier onlyRetailer() {\n        require(authorizedRetailers[msg.sender], \"Not authorized retailer\");\n        _;\n    }\n    \n    /// @notice Deploy contract and make deployer the owner + initial manufacturer\n    constructor() {\n        owner = msg.sender;\n        authorizedManufacturers[msg.sender] = true; // convenience: deployer can register initial products\n    }\n    \n    /// @notice Grant manufacturer permissions to an address\n    /// @param _manufacturer Address to authorize as manufacturer\n    function authorizeManufacturer(address _manufacturer) public onlyOwner {\n        // Prevent accidental authorization of the zero address which is almost always a bug\n        require(_manufacturer != address(0), \"manufacturer == zero\");\n        authorizedManufacturers[_manufacturer] = true;\n    }\n    \n    /// @notice Grant retailer permissions to an address\n    /// @param _retailer Address to authorize as retailer\n    function authorizeRetailer(address _retailer) public onlyOwner {\n        // Prevent accidental authorization of the zero address\n        require(_retailer != address(0), \"retailer == zero\");\n        authorizedRetailers[_retailer] = true;\n    }\n\n    /// @dev Internal helper: require a non-empty string. `err` should be a short revert message.\n    function _nonEmptyString(string memory s, string memory err) internal pure {\n        require(bytes(s).length > 0, err);\n    }\n    \n    /// @notice Register a new product\n    /// @dev Computes and stores a hash of `_productDetails` for off-chain verification\n    /// @param _productId External product identifier (must be unique)\n    /// @param _batchNumber Batch number string\n    /// @param _category Category or type of product\n    /// @param _productDetails Free-form details used to compute `productHash`\n    function createProduct(\n        string memory _productId,\n        string memory _batchNumber,\n        string memory _category,\n        string memory _productDetails\n    ) public onlyManufacturer {\n        // Basic input validation to prevent empty/meaningless fields\n        _nonEmptyString(_productId, \"productId required\");\n        _nonEmptyString(_batchNumber, \"batchNumber required\");\n        _nonEmptyString(_category, \"category required\");\n        _nonEmptyString(_productDetails, \"productDetails required\");\n\n        // Ensure we don't overwrite an existing product\n        require(!products[_productId].exists, \"Product already exists\");\n        \n        // Hash product details so consumers can verify off-chain data matches on-chain fingerprint\n        bytes32 productHash = keccak256(abi.encodePacked(_productDetails));\n        \n        products[_productId] = Product({\n            productId: _productId,\n            manufacturer: msg.sender,\n            manufactureDate: block.timestamp,\n            batchNumber: _batchNumber,\n            category: _category,\n            productHash: productHash,\n            status: ProductStatus.Available,\n            exists: true\n        });\n        \n        emit ProductCreated(_productId, msg.sender);\n    }\n    \n    // Mark product as sold (retailer calls this)\n    /// @notice Record a sale and mark the product as Sold\n    /// @param _productId Product identifier to mark sold\n    /// @param _buyer Buyer's address (optional, may be zero address)\n    /// @param _storeLocation Store/location identifier where sale occurred\n    function markAsSold(\n        string memory _productId,\n        address _buyer,\n        string memory _storeLocation\n    ) public onlyRetailer {\n        // Validate inputs\n        _nonEmptyString(_productId, \"productId required\");\n        _nonEmptyString(_storeLocation, \"storeLocation required\");\n\n        // Ensure product exists and is available for sale\n        require(products[_productId].exists, \"Product does not exist\");\n        require(products[_productId].status == ProductStatus.Available, \"Product already sold\");\n        \n        // Update product status and store sale record\n        products[_productId].status = ProductStatus.Sold;\n        \n        sales[_productId] = SaleRecord({\n            productId: _productId,\n            retailer: msg.sender,\n            buyer: _buyer,\n            saleDate: block.timestamp,\n            location: _storeLocation,\n            exists: true\n        });\n        \n        emit ProductSold(_productId, msg.sender, block.timestamp);\n        emit ProductStatusChanged(_productId, ProductStatus.Sold);\n    }\n    \n    /// @notice Quick verification for consumers: existence, status, manufacturer and batch\n    /// @param _productId Product identifier to query\n    /// @return exists Whether the product exists in storage\n    /// @return status Current ProductStatus\n    /// @return manufacturer Address of the manufacturer\n    /// @return batchNumber Batch number string\n    function quickVerify(string memory _productId) \n        public \n        view \n        returns (\n            bool exists,\n            ProductStatus status,\n            address manufacturer,\n            string memory batchNumber\n        ) \n    {\n        Product memory product = products[_productId];\n        return (\n            product.exists,\n            product.status,\n            product.manufacturer,\n            product.batchNumber\n        );\n    }\n    \n    /// @notice Retrieve detailed product information\n    /// @param _productId Product identifier to query\n    /// @return exists Whether the product exists\n    /// @return manufacturer Manufacturer's address\n    /// @return manufactureDate Timestamp when product was registered\n    /// @return batchNumber Batch number string\n    /// @return category Product category\n    /// @return status Current ProductStatus\n    function getProductDetails(string memory _productId)\n        public\n        view\n        returns (\n            bool exists,\n            address manufacturer,\n            uint256 manufactureDate,\n            string memory batchNumber,\n            string memory category,\n            ProductStatus status\n        )\n    {\n        Product memory product = products[_productId];\n        return (\n            product.exists,\n            product.manufacturer,\n            product.manufactureDate,\n            product.batchNumber,\n            product.category,\n            product.status\n        );\n    }\n    \n    /// @notice Get sale information for a product (if sold)\n    /// @param _productId Product identifier to query\n    /// @return wasSold True if a sale record exists for this product\n    /// @return retailer Retailer address that recorded the sale\n    /// @return saleDate Timestamp of the sale\n    /// @return location Store/location string\n    function getSaleInfo(string memory _productId)\n        public\n        view\n        returns (\n            bool wasSold,\n            address retailer,\n            uint256 saleDate,\n            string memory location\n        )\n    {\n        SaleRecord memory sale = sales[_productId];\n        return (\n            sale.exists,\n            sale.retailer,\n            sale.saleDate,\n            sale.location\n        );\n    }\n}\n",
  "sourcePath": "D:\\Blockchain\\truffle\\contracts\\ProductRegistration.sol",
  "compiler": {
    "name": "solc",
    "version": "0.8.19+commit.7dd6d404.Emscripten.clang"
  },
  "schemaVersion": "3.4.16",
  "updatedAt": "2025-10-18T13:32:55.805Z",
  "devdoc": {
    "details": "Stores product metadata and a single sale record per product. Uses simple access control maps.",
    "kind": "dev",
    "methods": {
      "authorizeManufacturer(address)": {
        "params": {
          "_manufacturer": "Address to authorize as manufacturer"
        }
      },
      "authorizeRetailer(address)": {
        "params": {
          "_retailer": "Address to authorize as retailer"
        }
      },
      "createProduct(string,string,string,string)": {
        "details": "Computes and stores a hash of `_productDetails` for off-chain verification",
        "params": {
          "_batchNumber": "Batch number string",
          "_category": "Category or type of product",
          "_productDetails": "Free-form details used to compute `productHash`",
          "_productId": "External product identifier (must be unique)"
        }
      },
      "getProductDetails(string)": {
        "params": {
          "_productId": "Product identifier to query"
        },
        "returns": {
          "batchNumber": "Batch number string",
          "category": "Product category",
          "exists": "Whether the product exists",
          "manufactureDate": "Timestamp when product was registered",
          "manufacturer": "Manufacturer's address",
          "status": "Current ProductStatus"
        }
      },
      "getSaleInfo(string)": {
        "params": {
          "_productId": "Product identifier to query"
        },
        "returns": {
          "location": "Store/location string",
          "retailer": "Retailer address that recorded the sale",
          "saleDate": "Timestamp of the sale",
          "wasSold": "True if a sale record exists for this product"
        }
      },
      "markAsSold(string,address,string)": {
        "params": {
          "_buyer": "Buyer's address (optional, may be zero address)",
          "_productId": "Product identifier to mark sold",
          "_storeLocation": "Store/location identifier where sale occurred"
        }
      },
      "quickVerify(string)": {
        "params": {
          "_productId": "Product identifier to query"
        },
        "returns": {
          "batchNumber": "Batch number string",
          "exists": "Whether the product exists in storage",
          "manufacturer": "Address of the manufacturer",
          "status": "Current ProductStatus"
        }
      }
    },
    "title": "ProductVerifier",
    "version": 1
  },
  "userdoc": {
    "kind": "user",
    "methods": {
      "authorizeManufacturer(address)": {
        "notice": "Grant manufacturer permissions to an address"
      },
      "authorizeRetailer(address)": {
        "notice": "Grant retailer permissions to an address"
      },
      "constructor": {
        "notice": "Deploy contract and make deployer the owner + initial manufacturer"
      },
      "createProduct(string,string,string,string)": {
        "notice": "Register a new product"
      },
      "getProductDetails(string)": {
        "notice": "Retrieve detailed product information"
      },
      "getSaleInfo(string)": {
        "notice": "Get sale information for a product (if sold)"
      },
      "markAsSold(string,address,string)": {
        "notice": "Record a sale and mark the product as Sold"
      },
      "quickVerify(string)": {
        "notice": "Quick verification for consumers: existence, status, manufacturer and batch"
      }
    },
    "notice": "Simple product registration & verification for manufacturers and retailers",
    "version": 1
  }
}